:020000040800F2
:10000000B1AA010000000000000000000000000094
:1000100000000000000000000000000000000000E0
:1000200000000000000000000000000000000000D0
:1000300000000000000000000000000000000000C0
:1000400000000000000000000000000000000000B0
:1000500000000000000000000000000000000000A0
:100060000000000000000000000000000000000090
:10007000000000000000000014250008000000003F
:100080000000000000000000000000000000000070
:100090000000000000000000000000000000000060
:1000A0000000000000000000000000000000000050
:1000B0000000000000000000000000000000000040
:1000C0000000000000000000000000000000000030
:1000D0000000000000000000000000000000000020
:1000E0000000000000000000000000000000000010
:1000F0000000000000000000000000000000000000
:1001000000000000000000000000000000000000EF
:1001100000000000000000000000000000000000DF
:1001200000000000000000000000000000000000CF
:1001300000000000000000000000000000000000BF
:1001400000000000000000000000000000000000AF
:100150000000000000000000000000007370043088
:10016000170500001305C5FF8545F605637BB5003F
:1001700089816378B500170500001305C5002E9529
:1001800002859302002073A0027D970200009382F3
:1001900062E773907230972200009382E256739068
:1001A000C27E73E0C07E972200009382A24D7390BE
:1001B0005230971100189381E1FE17810018130146
:1001C00061E417D50000130565BE970500189385F7
:1001D00065E3171600181306268063FAC50083220C
:1001E000050023A0550011059105E3EAC5FE17059A
:1001F00000181305657E971500189385250263770F
:10020000B500232005001105E36DB5FE73F0023241
:10021000173500001305452297300000E780001EC7
:1002200097300000E780E02497200000E78020D48A
:100230000145814597100000E78080A61733000034
:100240006700C31C01A073E00232828073F00232A7
:0402500082800000A8
:100280000A50726F6772616D2068617320657869CA
:10029000746564207769746820636F64653A000050
:1002A000307800006E6D690A0000000074726170A1
:1002B0000A0000005348572C000000002573252E2B
:1002C00034782C25730D0A0030313233343536370B
:1002D0003839414243444546000000000000000018
:1002E000000000000040AF40BC2900000C290000C5
:1002F000122900000C290000AE2900000C29000082
:1003000012290000BC290000BC290000AE29000011
:1003100012290000F2280000F2280000F228000054
:1003200016290000C22D0000C22D0000DA2D0000A9
:10033000BC2D0000BC2D0000682E0000DA2D00004E
:10034000BC2D0000682E0000BC2D0000DA2D00003E
:10035000BA2D0000BA2D0000BA2D0000682E000052
:10036000000102020303030304040404040404045C
:10037000050505050505050505050505050505052D
:10038000060606060606060606060606060606060D
:1003900006060606060606060606060606060606FD
:1003A00007070707070707070707070707070707DD
:1003B00007070707070707070707070707070707CD
:1003C00007070707070707070707070707070707BD
:1003D00007070707070707070707070707070707AD
:1003E000080808080808080808080808080808088D
:1003F000080808080808080808080808080808087D
:10040000080808080808080808080808080808086C
:10041000080808080808080808080808080808085C
:10042000080808080808080808080808080808084C
:10043000080808080808080808080808080808083C
:10044000080808080808080808080808080808082C
:10045000080808080808080808080808080808081C
:100460005A3C00004A3500004A3500004E3C00006E
:100470004A3500004A3500004A350000DA330000F2
:100480004A3500004A350000EC3B0000DC3B000030
:100490004A35000096350000143C00004A35000043
:1004A000083C000022350000223500002235000003
:1004B00022350000223500002235000022350000E0
:1004C00022350000223500004A3500004A35000080
:1004D0004A3500004A3500004A3500004A35000020
:1004E0004A350000863600004A3500009E3900007B
:1004F0005A39000086360000863600008636000035
:100500004A3500004A3500004A3500004A350000EF
:10051000503900004A3500004A35000032390000E9
:100520004A3500004A3500004A350000D638000040
:100530004A350000B63800004A3500004A35000050
:10054000603500004A3500004A3500004A35000099
:100550004A3500004A3500004A3500004A3500009F
:100560004A350000863600004A3500009E390000FA
:100570002E3B0000863600008636000086360000DE
:10058000443600002E3B00000E3400004A350000C7
:10059000323600004A350000D2350000A035000098
:1005A000563600000E3400004A350000D6380000F0
:1005B00008340000723C00004A3500004A35000053
:1005C000A23400004A35000008340000202020201A
:1005D00020202020202020202020202030303030DB
:1005E000303030303030303030303030494E4600EE
:1005F000696E66004E414E006E616E0030313233DE
:10060000343536373839616263646566000000004E
:10061000286E756C6C29000030000000000000009E
:1006200000000000000000000000000000000000CA
:1006300000000000000000000000000000000000BA
:100640000080FF3F7665924A4A803F154CC99A97D1
:10065000208A025260C42575326A52CE9A32CE2860
:100660004DA7E45D3DC55D3B8B9E925A6C52CE50CA
:100670008BF1283D0D65170C7581867576C9484D3F
:10068000669CF85850BC545C65CCC6910EA6AEA0D2
:1006900019E3A3461E85B7EAFE981B90BBDD8DDEED
:1006A000F99DFBEB7EAA514335023701B1366C331D
:1006B0006FC6DF8CE980C947BA93A841F850FB2583
:1006C0006BC7716BBF3CD5A6CFFF491F78C2D34023
:1006D000000000000000000020F09DB5702BA8ADC8
:1006E000C59D6940000000000000000000000000FF
:1006F0000004BFC91B8E3440000000000000000051
:100700000000000000000020BCBE194000000000F6
:10071000000000000000000000000000409C0C40B1
:1007200000000000000000000000000000000000C9
:1007300000C80540000000000000000000000000AC
:100740000000000000A002403020FCCFC3A12381A4
:10075000E32DDE9FCED2C804DDA6D80A6482CBD2B8
:10076000EAF2D4122549E42D36344F53AECE6B2530
:100770003FF598F6D36B5801A687BDC057DAA5821E
:10078000A6A2B53231E7D404F2E332D332711CD2DF
:1007900023DB32EE49905A393EA20853FBFE551135
:1007A00091FA39197A63254331C0AC3C6DE2DEDB46
:1007B0005DD0F6B37CACA0E4BC647C46D0DD553E95
:1007C000202A2462B347D798233FA5E939A527EA11
:1007D0007FA82A3F5B0BF24A81A5ED18DE67BA9429
:1007E0003945AD1EB1CF943F71BFB3A9897968BEB9
:1007F0002E4C5BE14DC4BE9495E6C93F4D3D3D7C1A
:10080000BA362B0DC2FDFCCE61841177CCABE43F30
:1008100055C1A8A44E401361C3D32B6519E25817E4
:10082000B7D1F13F0AD7A3703D0AD7A3703D0AD7CD
:10083000A3703D0AD7A3F83FCDCCCCCCCCCCCCCC4C
:10084000CCCCCCCCCCCCCCCCCCCCFB3FFFFFFEFF7B
:10085000FCFFF8FFF0FFE0FFC0FF80FF00FF00FE9D
:1008600000FC00F800F000E000C000800000000084
:10087000204E614E20000000202D496E66696E6991
:100880007479200020496E66696E697479200000D1
:100890004E614E004525640043000000504F53490F
:1008A000580000002E0000000500000019000000A4
:1008B0007D00000000000000000000000000F03F8C
:1008C000000000000000244000000000000059402B
:1008D0000000000000408F40000000000088C3407E
:1008E00000000000006AF8400000000080842E41F3
:1008F00000000000D01263410000000084D797413F
:100900000000000065CDCD41000000205FA0024244
:10091000000000E876483742000000A2941A6D42B9
:10092000000040E59C30A2420000901EC4BCD642AC
:1009300000003426F56B0C430080E03779C3414357
:1009400000A0D8855734764300C84E676DC1AB43CD
:10095000003D9160E458E143408CB5781DAF1544EB
:1009600050EFE2D6E41A4B4492D54D06CFF08044C6
:10097000F64AE1C7022DB544B49DD9794378EA44DB
:10098000BC89D897B2D29C3C33A7A8D523F6493965
:100990003DA7F444FD0FA5329D978CCF08BA5B2587
:1009A000436FAC642806C80A0080E03779C341432E
:1009B000176E05B5B5B89346F5F93FE9034F384DC5
:1009C000321D30F94877825A3CBF737FDD4F157571
:1009D0007A8C0000CA890000CA890000708C00006F
:1009E000CA890000CA890000CA8900006A8800001C
:1009F000CA890000CA890000688B00005A8B000079
:100A0000CA890000508B00001A8B0000CA890000C0
:100A1000108B0000A2890000A2890000A2890000BA
:100A2000A2890000A2890000A2890000A28900001A
:100A3000A2890000A2890000CA890000CA890000BA
:100A4000CA890000CA890000CA890000CA8900005A
:100A5000CA890000CA890000CA890000D88B00003A
:100A6000848B0000CA890000CA890000CA8900007E
:100A7000CA890000CA890000CA890000CA8900002A
:100A8000CA890000CA890000CA890000D28A000011
:100A9000CA890000CA890000CA8900009C8A000037
:100AA000CA890000F08A0000CA890000CA890000D3
:100AB0001C890000CA890000CA890000CA89000098
:100AC000CA890000CA890000CA890000CA890000DA
:100AD000CA890000CA890000CA890000D88B0000BA
:100AE000A48D0000CA890000CA890000CA890000DC
:100AF000928D0000A48D00009E880000CA8900002D
:100B0000808D0000CA8900004C8D00001C8D000003
:100B1000F88C00009E880000CA8900009C8A0000B2
:100B200098880000908C0000CA890000CA890000E3
:100B3000C28C0000CA890000988800002020202074
:100B40002020202020202020202020203030303065
:100B500030303030303030303030303000202020F5
:100B6000202020202020282828282820202020205D
:100B7000202020202020202020202020208810102D
:100B80001010101010101010101010101004040489
:100B90000404040404040410101010101010414147
:100BA0004141414101010101010101010101010135
:100BB0000101010101010101101010101010424249
:100BC0004242424202020202020202020202020205
:100BD00002020202020202021010101020000000A5
:100BE0000000000000000000000000000000000005
:100BF00000000000000000000000000000000000F5
:100C000000000000000000000000000000000000E4
:100C100000000000000000000000000000000000D4
:100C200000000000000000000000000000000000C4
:100C300000000000000000000000000000000000B4
:100C400000000000000000000000000000000000A4
:100C50000000000000000000000000000000000094
:100C6000C2AB0000C2AB0000C0AB000094AB000000
:100C700094AB00004AAD0000C0AB000094AB000094
:100C80004AAD000094AB0000C0AB000092AB000086
:100C900092AB000092AB00004AAD000001117973E5
:100CA0001303030C26CA896406CE22CC4AC8938457
:100CB00004F41A91B727240026868145938747427A
:100CC00008083EC697300000E78040819307A00ADD
:100CD0002318F10097100000E780405B5145971002
:100CE0000000E780205E97100000E78060680969D7
:100CF000930709F58A97D1453385974097100000EF
:100D0000E780E07397100000E7804029971000000B
:100D1000E780007E1305803E97200000E780C086B4
:100D20007974930709F58A971304C40B3E942285BE
:100D300097300000E780A08EAA85228597100000DA
:100D4000E780E03C1305200397200000E780C08384
:100D50003705004097000000E780A0457300501061
:100D600073005010E5BF97F7FFF79387A72989CB4A
:100D7000172500001305456C172300006700036862
:100D80008280F36704308280171300006700A30C91
:100D9000411106C622C426C24AC02A84B2842E89C2
:100DA00097100000E780000ACA852285971000008E
:100DB000E780E00B22852244B2400249A685924496
:100DC0004101171300006700030FB7070240938724
:100DD0000740630AF50213962500B307B6008A0799
:100DE000AA9794473D473317C700F99A94C723A49D
:100DF000070023A6070023A8070023AA07005C41D9
:100E0000D98F5CC182809147E3F7B7FC01A0B70797
:100E10000240938707406304F50893972500184222
:100E2000AE978A07AA9798CB18460545D8CB0357A3
:100E30000601D8C74C4658429447032846014D8FB7
:100E4000F1759385F50FED8E33670701558F98C7C0
:100E5000034786016300A70498471377F7FB98C7F9
:100E60008346960105476382E60298471377F7F7B2
:100E700098C70347A60109E798473D9B98C782801A
:100E800098471367070198C7828098471367070838
:100E900098C7C5B798471367070498C7D1B7914754
:100EA000E3FDB7F601A0B707024093870740630C44
:100EB000F50093972500AE978A07AA97984713677E
:100EC000070298C782809147E3F5B7FE01A0B707F4
:100ED000024093870740630CF50093972500AE9777
:100EE0008A07AA9798471377F7FD98C7828091479A
:100EF000E3F5B7FE01A0B707024093870740630CF4
:100F0000F50093972500AE978A07AA97984713672D
:100F1000170098C782809147E3F5B7FE01A05C41B6
:100F20008A053316B6005D8E50C1828091476308F2
:100F3000F604A1476307F60289476303F60001A0A0
:100F400013972500B307B7008A07A107AA9708419E
:100F50009C433317E600798D898B19C13335F00036
:100F6000828013972500B307B7008A07A107AA97C5
:100F700008419C433316E600718DA18BF9BF13978E
:100F80002500B307B7008A07A107AA9708419C4329
:100F90003317E600798D918BC9B7170300006700FE
:100FA00043F8B707024093870740630BF500939718
:100FB0002500AE978A07AA979847518F98C78280D5
:100FC0009147E3F6B7FE01A04111B717004006C6EE
:100FD000138707C0630DE5046371A70213870740F9
:100FE0006305E50637370140130707C0630DE506C3
:100FF0006309F508B240410182803707004093063B
:101000000740630ED508938707806308F50AE3134A
:10101000E5FE1305004097100000E780E097B2401E
:101020001305004041011713000067006398130582
:10103000304097100000E7802096B2401305304002
:101040004101171300006700A39613055040971045
:101050000000E7806094B24013055040410117132F
:1010600000006700E3941305B03097100000E7809C
:10107000A092B2401305B030410117130000670081
:1010800023931305404097100000E780E090B240A2
:1010900013054040410117130000670063911305D9
:1010A000104097100000E780208FB24013051040D9
:1010B0004101171300006700A38F1305204097100C
:1010C0000000E780608DB2401305204041011713F6
:1010D00000006700E38DC167FD1723200500231280
:1010E00005001CC52316050023070500828083D751
:1010F000050003D745001376F5BF1CD5B73701406F
:10110000938707C0418B6306F504FD779387F73F0C
:10111000E98FB7060040638ED7021C41B716004026
:10112000BD9B1CC11C415D8F18C19C455CD5630DE6
:10113000D600184183D7C5001377F7CF18C11841DF
:1011400093F70730D98F1CC15C4993E717005CC93E
:101150008280144183D725003718004093F6F6F8B3
:1011600014C1144193F70706D58F1CC11C415D8F34
:1011700018C19C455CD5E30906FD184183D7C5001D
:10118000B73601401377F7CF18C1104193F70730F6
:10119000138706C0D18F1CC1E318E5FA83C7E500A9
:1011A00023A8F6C25C4993E717005CC982801C4102
:1011B00093E717001CC182801C4193E707081CC1FC
:1011C000828023100500231105002312050023133C
:1011D00005002314050023150500828085476385DB
:1011E000F50CD9C589476387F5048D476393F504EA
:1011F0001C517D777D17F98F1CD18357060018513C
:10120000F976B207D98F1CD11851FD1683574600C5
:10121000758F18D11451B20737370140D58F1CD1C3
:10122000930707C0630AF51E5C4D93F7F7CF5CCDBB
:10123000828082801451035706008357460093F63C
:10124000F6EF14D114512207A207558F18D114516B
:1012500037370140930507C093F6F6DF14D11451D8
:10126000D58F1CD16301B5145C4DF19B5CCD8280A0
:101270001C518356060003574600F99B1CD10328D6
:101280000502B7370140938507C0B3E6060114D1C4
:101290001451F59A14D11451558F18D16307B50A1A
:1012A0001C4DF19B1CCD82801451035706008357BF
:1012B0004600BD9A14D1145112079207558F18D1C8
:1012C000145137370140930507C093F6F6FD14D14A
:1012D0001451D58F1CD16307B5001C4D93F7F7CF80
:1012E0001CCD82800C51835626008357660093F5EF
:1012F000F5FB0CD10C5192069207CD8E14D10C51F6
:101300008356860093F5F5F70CD10C518A06CD8FE4
:101310001CD1832547C08357A60093F5F5BF232230
:10132000B7C0032647C08A07D18E2322D7C08326A1
:1013300047C07D761306F67FF18E2322D7C0832621
:1013400047C0D58F2322F7C049BF18510358260044
:10135000835566006D9B18D183280502835686004D
:101360000357A600336818012320050310515D9A26
:1013700010D11051D18D0CD103A647C01376F6EFD2
:1013800023A2C7C003A647C0D18E23A2D7C083A67D
:1013900047C093F6F6DF23A2D7C083A647C0558F78
:1013A00023A2E7C0F5BD0C5183572600FD7693F5C7
:1013B000F5BF0CD10C51A2079388F67FCD8F1CD1BD
:1013C000032805029385F6FF83576600B37618015C
:1013D00014D103280502A20783568600B3E707014C
:1013E0001CD1832747C09206FD8D2322B7C08325D9
:1013F00047C08357A6007976CD8E2322D7C0832697
:1014000047C07D169207F18E2322D7C0832647C09E
:10141000D58F2322F7C089BD832747C0F176FD16FB
:10142000F58F2322F7C083578600832647C09A078B
:10143000D58F2322F7C0CDBB85476384F502A1C5B4
:101440008947638AF5028D47639CF5005C4D65779B
:101450007D17F98F5CCD5C4D22065D8E50CD82806C
:1014600082801C4D65777D17F98F1CCD1C4D22069F
:101470005D8E10CD82805C4D93F7F7F85CCD5C4DAE
:101480005D8E50CD82801C4D93F7F7F81CCD1C4D1E
:101490005D8E10CD82808547638CF50091CD8947A4
:1014A000638AF5008D476394F50030C182808280A5
:1014B00010DD828050DD828050D98280854763852F
:1014C000F502A9C58947638CF5028D47639DF50038
:1014D0005C4D7D771307F77FF98F5CCD5C4D22065D
:1014E0005D8E50CD828082801C4D7D771307F77F03
:1014F000F98F1CCD1C4D22065D8E10CD82805C4D77
:10150000DD9B5CCD5C4D5D8E50CD82801C4DDD9BA6
:101510001CCD1C4D5D8E10CD82804111B75700400F
:1015200006C6138707C06302E5066378A702630C4B
:10153000F506B7470140938707806314F508130544
:10154000E03097000000E7802045B2401305E0300E
:101550004101170300006700A34537470040130708
:1015600007406303E50693870780631CF5041305B2
:10157000204197000000E7802042B240130520413F
:101580004101170300006700A34213053041970093
:101590000000E7806040B24013053041410117036D
:1015A00000006700E3401305404197000000E7801A
:1015B000A03EB240130540414101170300006700FF
:1015C000233FB24041018280130510419700000083
:1015D000E780803CB2401305104141011703000031
:1015E0006700033D41113757004022C426C206C69A
:1015F000930707C02A84AE84630AF50463FDA7023B
:101600006306E50437470140130707800145631768
:10161000E4000D4597000000E780403B93D714009D
:10162000AA97B3D79702B2409244C207C1831CC4A1
:10163000224441018280B7460040938606406307FA
:10164000D500130707800145E31AE4FC094597001C
:101650000000E780A037D9B75C4593F7F79F5CC5DA
:101660005C45DD8D4CC582805C457D777D17F98FAB
:101670005CC55C45DD8D4CC582801C4975777D1746
:10168000F98F1CC91C49DD8D0CC982805C45096736
:10169000D98F5CC582805C45DD9BDD8D4CC5828029
:1016A0005C45ED9BDD8D4CC582805C4993F7F7EF7F
:1016B000DD8D4CC982805C4993F7F7DFDD8D4CC925
:1016C00082805C4993F7F7FBDD8D4CC982805C49D1
:1016D00093F7F7F7DD8D4CC982804111B7270140A0
:1016E00006C693870740630BF500B7370140938721
:1016F00007806303F502B2404101828013059030F8
:1017000097000000E7804029B24013059030410166
:10171000170300006700C3291305A03097000000DD
:10172000E7808027B2401305A03041011703000075
:1017300067000328B727014003A74740B706F1FF1A
:10174000FD16758F23A2E74003A74740598D23A2BA
:10175000A740828093F705100DC699EF93F70540D7
:1017600089C75C4193E707405CC1898985CD1C45E9
:1017700093E727001CC582805C4193E707105CC19A
:10178000F1BF89C75C4193F7F7EF5CC193F7054060
:1017900089C75C4193F7F7BF5CC1898981C51C4546
:1017A000F59B1CC582801C4599C5056713070780FA
:1017B000D98F1CC582807D771307F77FF98F1CC5F1
:1017C00082801C45858B89E71C4593E717001CC563
:1017D00082801C451307850093E787001CC51C43C6
:1017E000A18BF5FF1C4593E747001CC51C43918B5B
:1017F000F5FF82801C4593E707101CC58280854752
:101800006385F50289476391F5021C5D3707D0FFB8
:101810007D17F98F1CDD1C5D7D16520637073000E1
:10182000798E5D8E10DD828082805C55370710FFD7
:101830007D17F98F5CD55C557D1652063707F00091
:10184000798E5D8E50D58280954763E2B704939779
:101850002500BE955859FD47B397B70093C7F7FFCA
:10186000F98FB315B600DD8D4CD9A54763E6C704E3
:10187000931716003E9618499D47B397C70093C724
:10188000F7FFF98F3396C6005D8E10C98280AD4791
:1018900063E7B704E91593972500BE951859FD47EE
:1018A000B397B70093C7F7FFF98FB315B600DD8D77
:1018B0000CD9A547E3FEC7FAC54763E1C70259162D
:1018C000131716004C453A969D47B397C70093C728
:1018D000F7FFED8F3396C6005D8E50C58280BD4701
:1018E000E3E5B7F8D11593972500BE955855FD4708
:1018F000B397B70093C7F7FFF98FB315B600DD8D27
:101900004CD5A5B78547638FF5008947639BF500E4
:101910001C4565777D17F98F1CC51C455D8E10C56C
:10192000828082801C453707F2FF7D17F98F1CC526
:101930001C455D8E10C5828093F715000DC281EBAA
:10194000898989CD1C452167D98F1CC582801C459A
:10195000370710008989D98F1CC5EDF5828099C79A
:101960001C453707F0FF7D17F98F1CC58989FDD508
:101970001C4561777D17F98F1CC58280B71702401F
:10198000135765003E9714438547B397A700D58F3B
:101990001CC38280B7170240135765003E9714435B
:1019A0008547B397A700D58F1CC38280B717024025
:1019B000135765003E9714438547B397A70093C715
:1019C000F7FFF58F1CC38280B707030437070809A8
:1019D000011193871720130767703ECC3EC23EC6A5
:1019E00002C802CA3ACE02C002C4B7160240D842A8
:1019F000B7177A00094609830D8B93870720630D7B
:101A0000C7043717024050435443584311820C1007
:101A10003D8A2E96034606FFA1822D839D8A1D8B4B
:101A20002E97AE96054833D6C70083C506FE0347FA
:101A300087FE6301050B11CD8946B357B600630AD3
:101A4000D500751513351500B357E6003305A040D2
:101A5000E98F3E8505618280D8421316F700635FE7
:101A60000606D8561316F70063580602D856DC56F9
:101A7000454693564700A183BD8BBD8A1387270037
:101A800085066313C7005147B7177A00938707206D
:101A9000B3D7D702B387E702371702405857B716B4
:101AA00002403D8B0507B3D7E702D842D4424983B1
:101AB000139626003D8B63410604BD466300D704A0
:101AC0000907631ED702139717003E970607858301
:101AD000BA9705BFB2873E8505618280B71602407E
:101AE000D842D442B7173D00498313962600938706
:101AF00007903D8BE35306FC136707010507B30707
:101B0000F70201B793F7050193F8F50099C3B3E81D
:101B1000C8008147854E3D4E930F8002930280049A
:101B20002143139627003397FE003318CE00758F9C
:101B30001348F8FF3396C80001CF032F0500337810
:101B4000E80133660601638FF5056389550410C10A
:101B50008507E39867FC854E3D4E930F8002930204
:101B6000800441431397270001173396FE00331872
:101B7000EE00758E1348F8FF3397E80001CE032F6F
:101B800045003378E80133670701638FF501638906
:101B9000550058C18507E39767FC828018C945BF87
:101BA00010C9C5BF58C965B750C9E5B7B7170240D6
:101BB0009843B706FFE0B1061367170098C3D843F0
:101BC0003706F7EA7D16758FD8C39843B706F7FE38
:101BD000FD16758F98C39843B706FCFFFD16758FE9
:101BE00098C3D843B70601DFFD16758FD8C323A667
:101BF000070294433707FF00C165F18E94C398C76D
:101C000098439386F5FF371602404D8F98C311A075
:101C100099C61C42FD161397E700E35B07FEB71752
:101C2000024098439316E70063D0060AD84337066C
:101C3000C4DF7D16D8C3D843B7160240D8C3D843F3
:101C400013670740D8C3D843718FD8C3D84337062A
:101C50002920518FD8C3D8573D76718FD8D7D85700
:101C60004166130616F1518FD8D798433706000402
:101C7000518F98C39C4213974700E35D07FE9C4237
:101C80003706001037170240D18F9CC21C43939631
:101C90002700E3DD06FE144337060001B7170240B4
:101CA000D18E14C3984393166700E3DD06FED84334
:101CB000B7160240719BD8C3D84313672700D8C317
:101CC000DC42A18BF5DF828001A0B7070008938773
:101CD000072803AF070083AE470003AE870003A3C6
:101CE000C70083A8070103A84701944F03D7C70182
:101CF00083C7E7017971794622D48A852A84094508
:101D000006D67AC076C272C41AC646C842CA36CC53
:101D1000231EE100230FF10097400000E780C08AF6
:101D2000A285094597000000E780E001B70500089B
:101D300005469385052B094597400000E780C0883C
:101D400001A0797156CAAE8AB70500080946938585
:101D5000052A22D426D24AD04ECE52CC06D62A8A82
:101D6000714497400000E7802086BD492549F15421
:101D700005A093F7F60F711405469305F1005285FF
:101D8000A307F10097400000E7800084630F9402EE
:101D9000B3978900B3F75701B3D7870093F7F70FCD
:101DA0009386070313877703E375F9FC9377F70F9F
:101DB000711405469305F1005285A307F100974081
:101DC0000000E7806080E31594FCB25022549254E6
:101DD0000259F249624AD24A45618280B71700200F
:101DE0009387479A94433717002013078721369526
:101DF000636BE50037770020130707006365A700D2
:101E000088C336858280FD5636858280B70700D12B
:101E1000D8438843CC43E39DE5FE8280370700D258
:101E2000230007001205B71700D2A30507003E954F
:101E300063F7A70023A00700C107E3EDA7FE828098
:101E4000B71700D285070A053E9585472300F500A0
:101E50008280370700D2834707000605798993F708
:101E6000170E5D8D2300A7008280B70700D203C73D
:101E70000700914705833D8BBA8663F3E7009146DF
:101E8000B71700D28D070A053E958347050013F664
:101E9000F60F2147B397D70093F7F70F118FB3D7FA
:101EA000D740B395E500CD8F93F7F70F2300F500EA
:101EB0008280B70700D203C7070005839377C70066
:101EC00085EFB71600D20A058D06AA9683C70600CD
:101ED00021463D8B3307E640B3D7E74013954500D5
:101EE00093F7F70F1375F50FB397E700C98F93F7C3
:101EF000F70F2380F600828001458280F32750305F
:101F000093F707FC93E73700739057308280B7054B
:101F10000008411115469385452A054506C69730A8
:101F20000000E780606A054597000000E78020DA3E
:101F300041119347F5FF22C406C6139747012A842F
:101F400005C3B705000815469385C52A0545973092
:101F50000000E7806067228597000000E78020D7B7
:101F600097000000E780E0FAE9BF411106C697003C
:101F70000000E780E0C31305700597000000E780CC
:101F800020EA97000000E780A0F7B240410117E384
:101F9000FFFF6700832B828079711305005006D6FE
:101FA00022D497000000E780A09D130520609700D1
:101FB0000000E780E09C1305E06097000000E780E8
:101FC000209C3714014013050480930600200D4621
:101FD000E14597000000E78020B3930600400D46DE
:101FE00091451305048097000000E780E0B1374475
:101FF00001401305048097F0FFFFE7804052F16530
:10200000130504809385052097F0FFFFE780C05DEE
:1020100013050480814597F0FFFFE78020651305D5
:102020000480814597F0FFFFE78060651305048019
:10203000814597F0FFFFE7806062130504808145CA
:1020400097F0FFFFE780A06613050480814597F0B5
:10205000FFFFE780806613050480914597F0FFFF3E
:10206000E7804064A1451305048097F0FFFFE780F7
:10207000C0621305048097F0FFFFE78060611305DD
:1020800004809305000897F0FFFFE7808064130544
:1020900004809305000497F0FFFFE780C06291453C
:1020A0003705024097F0FFFFE78060D2B7170020A6
:1020B0009387079E3EC6930700403ECA8D67500037
:1020C0003ECC91459307001037050240130444802D
:1020D000231EF10022C202C402C8230F010097F0A0
:1020E000FFFFE78000D391453705024097F0FFFFDF
:1020F000E78020DE91453705024097F0FFFFE7803B
:10210000C0DFB250225445618280797122D426D238
:1021100006D6B71400202E84938404DE9DC5B7171D
:102120000020B306B500938407DEFD16938707DE13
:102130001306054021A005056309C50003470500F6
:102140008507A38FE7FEE318D5FE8D4537050240CE
:1021500097F0FFFFE780A0C7B7470140938747800C
:102160003EC28D673ECC930700105000231EF10045
:102170008D45854737050240230FF10026C622CA48
:1021800002C802C497F0FFFFE780A0C88D4537055D
:10219000024097F0FFFFE780C0D3370502408D452E
:1021A00097F0FFFFE78060D5B2502254925445610A
:1021B00082805571A2C5A6C3CAC12E842A898145D1
:1021C000B28488001306000886C797100000E780D5
:1021D000E030B70700089387872C8C43D04394479F
:1021E000D84783C7070102CA02CC02CE02D002D26E
:1021F00002D402D602D802DA02DC230E01022EC07B
:1022000032C236C43AC62308F10095C8A285130726
:1022100051013305940083C705009401090713D6C3
:102220004700BD8B3696B697034606F483C707F47E
:102230008505A30EC7FE230FF7FEE31EB5FC9C0128
:10224000860437060008B7050008BE945808CA86F9
:102250001306462B9385C52B8800238A04F4971018
:102260000000E7808036880097100000E780203B60
:10227000AA85880097000000E78060E9BE402E44F0
:102280009E440E496961828041111305906006C623
:1022900097F0FFFFE780C06E1305005097F0FFFF37
:1022A000E780006E1305007097F0FFFFE780406D38
:1022B000B24013052060410117F3FFFF6700436C34
:1022C000797122D42A843705004006D697F0FFFFA3
:1022D000E780C0CF080897F0FFFFE78000E0856740
:1022E0000C0893877751370500403EC822CC231A4B
:1022F0000100231E0100230F010097F0FFFFE7807C
:1023000040DF480097F0FFFFE780E0EB8547500093
:102310008545370500402312F1002314010097F092
:10232000FFFFE780E0EB054685453705004097F065
:10233000FFFFE7808016130600078545370500403C
:1023400097F0FFFFE780800F014685453705004085
:1023500097F0FFFFE780C0163705004097F0FFFFBA
:10236000E780C0E5B25022544561828037150140B4
:10237000411185460D4681451305058006C622C4D8
:102380003724014097F0FFFFE780007813050440F1
:1023900097F0FFFFE780A034014597F0FFFFE7804B
:1023A000A0390546130504409305001097F0FFFF80
:1023B000E780803A13050440814597F0FFFFE780EE
:1023C000C03E130504400546854597F0FFFFE780B2
:1023D00040439546130504400146814597F0FFFFB1
:1023E000E780C0461305044037060600854597F090
:1023F000FFFFE7806051054685451305044097F0CF
:10240000FFFFE780A0531305044097F0FFFFE7802C
:10241000A03E1305044097F0FFFFE780C03A054552
:1024200097000000E7804016130504402244B240A4
:10243000410117F3FFFF6700033A797126D2B717FE
:102440000020AA8423A6972013050050B717002068
:1024500006D622D423A4B7202E8497F0FFFFE7806E
:10246000205281453705024097F0FFFFE780209614
:10247000B72701409387C7443EC293070040130724
:10248000001050003EC881458967370502403AC4B4
:102490003ECC231EE10026C622CA230F010097F07E
:1024A000FFFFE7800097094681453705024097F016
:1024B000FFFFE78040AF114681453705024097F0A6
:1024C000FFFFE78040AE81453705024097F0FFFFF0
:1024D000E780A09D81453705024097F0FFFFE78028
:1024E000C0A1B2502254925445618280411106C667
:1024F00097F0FFFFE78020890D4597F0FFFFE78009
:10250000E088B240054685457945410117F3FFFF54
:10251000670043884111114681453705024006C6D0
:1025200022C497F0FFFFE780A0A009C5B7170020DD
:1025300003A4C720094681453705024097F0FFFFF5
:10254000E780009FB717002003A6872001C9B717AF
:10255000002003A4C7209377E6FF3E94A28513765C
:10256000F60F1305400797000000E780C0C422441F
:10257000B2400546814537050240410117F3FFFF90
:102580006700E3A179714AD04ECE5EC606D622D44A
:1025900026D252CC56CA5AC862C466C2AA8B9700C9
:1025A0000000E780E0862A89AE8997000000E78076
:1025B00020862A84AE846314A900E388B9FEB70795
:1025C000000803A9072E83A9472E371B0020970078
:1025D0000000E780E083AA87018DB3B7A700858D4F
:1025E0009D8D97100000E78000C22A8A03250B9A70
:1025F000AE8A97100000E780A0BB4A86CE8697007F
:102600000000E78080172A8C5E85AE8C9710000052
:10261000E78000BA2A86AE866285E68597000000CC
:10262000E78040742A86AE865285D68597000000E2
:10263000E7800069E34D05F8B250225492540259E4
:10264000F249624AD24A424BB24B224C924C45610B
:102650008280000000000000000000000000000078
:10266000000000000000000000000000000000006A
:10267000000000000000000000000000000000005A
:102680005D7106C012C216C41AC61EC82ACA2ECC54
:1026900032CE36D03AD23ED442D646D872DA76DC42
:1026A0007ADEFEC0F322103496C0F322003096C2C8
:1026B000F322407C96C4732520348A85970000005D
:1026C000E7804087864273901234964273900230BE
:1026D000A6427390427C82401242A2423243C243DD
:1026E0005245E245724682561257A2573258C25896
:1026F000525EE25E725F864F6161730020300000BF
:10270000000000005D7106C012C216C41AC61EC8C1
:102710002ACA2ECC32CE36D03AD23ED442D646D871
:1027200072DA76DC7ADEFEC073D0E87E7350F97E12
:1027300073D0B97EF390D07E73700430B64273903C
:10274000427CA642739012349642739022348240A7
:102750001242A2423243C2435245E2457246825679
:102760001257A2573258C258525EE25E725F864FCD
:10277000616173002030797113D8450126D24ECEA5
:1027800052CC5AC85EC69394C50006D622D44AD00D
:1027900056CA1378F87F2A8BB28B368AB18093D9C8
:1027A000F501630408089307F07F630EF80C935A51
:1027B000D5018E04B3E49A00B70A8000B3EA54014D
:1027C00013143500130918C0014B13554A01931413
:1027D000CA001378F57FB180135AFA016308080C18
:1027E0009307F07F6301F8121395340093D7DB0150
:1027F0005D8DB7048000C98C139F3B00130518C082
:10280000814713172B005D8F7D17B94633C64901E9
:102810003308A94063EBE61097E6FFFF938606AD09
:102820000A073697184336970287B3EAA4006386EF
:102830000A068DCC268597100000E78060B89307C4
:1028400055FF7147634BF702F54A130485FFB38ABE
:10285000FA40B3948400B35A5B01B3EA9A0033148C
:102860008B001308D0C03309A840B9BF97100000EF
:10287000E78000B513050502D9B7930485FDB31AA7
:102880009B000144F9BFB3EAA400638C0A002A84C8
:10289000A68A1309F07F0D4B0DBF01440149054B7A
:1028A0002DB701441309F07F094B05B733EF7401CD
:1028B00063040F069DC8268597100000E78040B08E
:1028C000930755FF7147634AF7027547130F85FF5A
:1028D0001D8FB394E40133D7EB00D98C339FEB0108
:1028E0001306D0C03305A64021BF5E8597100000B7
:1028F000E78000AD13050502E1B7930485FDB394AD
:102900009B00014FF1BF33EF7401630B0F005E8F2B
:102910001305F07F8D47F5B5814401458547D5B551
:1029200081441305F07F8947E9BD63E65401639351
:102930009A2A6361E42B9396FA01135714009317B4
:10294000F40193DA1A0033E4E600139584009354FB
:102950008F01458D135E0501B3D8CA03131305011A
:10296000135303011357040193158F00B3F4CA03E3
:10297000C68FB3061303939A040133675701637C30
:10298000D7002A97938FF8FF6367A7006375D70076
:10299000938FE8FF2A97158FB35EC70342044180E7
:1029A0003377C703F686B308D3034207418F637CAE
:1029B00017012A979386FEFF6367A70063751701C7
:1029C0009386EEFF2A97C20FB3EFDF00C166330490
:1029D00017419388F6FF13DF0F0133F71F0193DED2
:1029E0000501B3F81501B3031703B3041F033387BD
:1029F000EE02B302DF03330F970013D703017A9778
:102A000063739700B692135F0701169FC162FD12B0
:102A1000B3765700C206B3F353009E966367E40192
:102A2000FE84631EE40363FCD702AE9733B7B7009E
:102A30002A973A949384FFFF6366850063118502A9
:102A400063EFB7006366E401631B8F0063F9D7008F
:102A5000AE9733B7B7002A979384EFFF3A94B386C3
:102A6000D7403304E441B3B7D7001D8C7D5F6305C5
:102A7000850E335FC40313D706013374C403B30751
:102A8000E3034204598C7A87637CF4002A94130789
:102A9000FFFF6367A4006375F4001307EFFF2A9438
:102AA0001D8C335FC403C206C1823374C403FA872A
:102AB0003303E3034204558C637C64002A94930738
:102AC000FFFF6367A400637564009307EFFF2A9418
:102AD00042075D8F93170701C1833304644013538A
:102AE0000701338E1703B308130333836E02B38ECB
:102AF000FE0293570E01C69EF69763F41701C16656
:102B0000369393D807019A9841637D13B3F6670013
:102B1000C206337E6E00F29663661401631E1419BA
:102B20003A8F9DCA2A94130FF7FF6361A40263666C
:102B300014016312141963FDD50093971500B3B502
:102B4000B7002E95130FE7FF2A94BE856314140176
:102B50006384B600136F1F001307F83F6357E00A42
:102B600093777F0081CF9377FF0091466388D700EA
:102B700093064F0033BFE601FA94368F93977400A3
:102B800063D80700B70700FFFD17FD8C1307084047
:102B90009307E07F63C8E710135F3F009397D4016A
:102BA000B3E7E70113D5340032051377F77F5207F7
:102BB000B25022543181598D7E063367C50092543C
:102BC0000259F249624AD24A424BB24B3E85BA851B
:102BD000456182807D1881478DBB4E86D684228FC9
:102BE000DA8709476380E70C0D476386E70A0547E4
:102BF000E394E7F60145814785A85286DDB7B7041F
:102C00000800014F01468D47E9BF0545198D93071F
:102C10008003E3C1A7FEFD4763CAA7041308E84188
:102C2000B39704013357AF0033180F01D98F3338EE
:102C30000001B3E7070133D5A40013F7770001CFF4
:102C400013F7F70091466308D70013874700B3379F
:102C5000F7003E95BA8713178500634A07041317D8
:102C6000D5018D83D98F0D8101473DBF8557998F40
:102C700093060002B3D7F40001476306D50013089A
:102C8000E84333970401336FE701333FE001B3E7D3
:102C9000E70101455DB73705080081471307F07F5D
:102CA000014619B7014581471307F07FF5BD01457E
:102CB00081470547D5BD7A873A8F69BD13D845014D
:102CC000B7071000FD1713D746011378F87F930E4E
:102CD000F07FB3F8B7002A83F58FFD81328E13772A
:102CE000F77FFD826318D801B3EEA80063850E0656
:102CF00089450DA86316D701B3EEC700E39A0EFE0F
:102D0000631D080433E5A8001335150019E35D8E33
:102D100015CE11E5638AD50085C9FD5521A0FD5565
:102D200091C2B6852E858280E34807FF6354E80090
:102D3000F5F9E5B7E3E217FF639CF800E36E6EFC7C
:102D4000E368C3FF8145F9BF8545E9BF65FDE9B784
:102D5000E3E0F8FEC5BFE30107FB4DFF014545BFBA
:102D600079714ECE93D9450122D426D252CC56CA7F
:102D70005AC89394C50006D64AD05EC693F9F97F27
:102D80002A84328BB68AB18013DAF501638109088F
:102D90009307F07F6389F90C9357D5018E04DD8C7E
:102DA000B7078000DD8C13193500938919C0814B5A
:102DB00013D54A011394CA001375F57F318093DA55
:102DC000FA0161C59307F07F630DF5109357DB019E
:102DD0000E045D8CB70780005D8C130515C093173A
:102DE0003B00014793962B00D98E4E95FD16B945B1
:102DF00033465A011308150063E6D51097D5FFFF37
:102E0000938585528A06AE969442AE96828633E9C1
:102E1000A400630309069DC8268597000000E7808B
:102E2000205A130755FFF14763C9E702F547130915
:102E300085FF998FB3942401B357F400DD8C3319C7
:102E400024019309D0C0B389A94095B79700000029
:102E5000E780005713050502E9B7930485FDB31415
:102E600094000149F9BF33E9A400630B09002A89E2
:102E70009309F07F8D4B2DBF81448149854B0DBF58
:102E800081449309F07F894B25B7B3676401B5C3CB
:102E90001DC8228597000000E7808052930655FFE9
:102EA000F14763CAD7027547930785FF158F33141F
:102EB000F4003357EB00598CB317FB001307D0C055
:102EC0003305A74039BF5A8597000000E780404F7F
:102ED00013050502E1B7130485FD33148B00814708
:102EE000F1BFB367640191CBDA871305F07F0D471B
:102EF000D5BD014401450547F5B501441305F07FF3
:102F00000947CDB5416F930EFFFF1357090193D8C1
:102F100007013379D901B3F7D701B3852803B38605
:102F20002703B30FF7023383F50193D506019A9572
:102F3000330E170363F3F5017A9E93D30501B3F5BE
:102F4000D501B3F6D601135F0401B372D401C205F3
:102F5000B695B30E5702B386220333092F0333030A
:102F6000D90113D906011A993307E7036374D9010C
:102F700041631A97935E0901C169BA9E1387F9FFED
:102F80003379E900F98E13D404014209F98C36999A
:102F900033879702CA933303F402B3869802B38748
:102FA0008802B388660093560701C69663F36600ED
:102FB000CE9793D80601C169B38FF8009387F9FFC4
:102FC000FD8E7D8FB3889202C206BA96B307540273
:102FD000B3049F0233038F02BE9413D40801A2945A
:102FE00063F3F4004E93C167FD1733F7F400B3F8B1
:102FF000F80042071E9E469733392E017697330418
:103000002701369EB336DE00B308F401338FD800B3
:103010003337D70133342401598CC180B3B8F80158
:10302000B336DF002694B3E6D80036941A9493574B
:103030007F0126045D8C93179E00CD8FB337F0007F
:10304000135E7E0113179F00B3E7C701D98F1317D3
:1030500074006358070A13D71700858BD98F13178D
:10306000F401D98F05809306F83F635ED00813F70B
:10307000770001CF13F7F70091456308B700138776
:103080004700B337F7003E94BA87131774006358AC
:103090000700370700FF7D17798C93060840130758
:1030A000E07F634CD70E13D737009317D401D98F25
:1030B0000D80320413F7F67F52073180598C7E065B
:1030C0003367C400B250225492540259F249624A02
:1030D000D24A424BB24B3E85BA85456182805286C8
:1030E0002684CA875E8789466309D70A8D46630F9F
:1030F000D7088546E319D7F6014481479DA0568637
:10310000DDB72A888DB78545958D13078003E34584
:10311000B7FE7D476349B7041308E841331704013C
:10312000B3D6B700B3970701558FB337F000D98FE7
:103130003354B40013F7770001CF13F7F70091462B
:103140006308D70013874700B337F7003E94BA8768
:1031500013178400634807041317D4018D83D98F94
:103160000D808146B9B70557158F130500023357F7
:10317000E40081466386A5001308E843B316040102
:10318000D58FB337F000D98F01446DB737040800ED
:1031900081479306F07F014629BF0144814793068A
:1031A000F07F01BF01448147854621B7411122C408
:1031B00006C62A8421C597000000E7806020130717
:1031C000E041A947098F63C6A702AD47898F55051E
:1031D000B357F4003314A4002285B2402244B2074E
:1031E0001377F77F5207B183B3E6E700B685410155
:1031F00082805515B317A4000144F9BF81470147E8
:10320000E1BF011106CE22CC26CA4AC84EC652C41E
:10321000B367B500638607142A842E89AE84BDC5C2
:103220002E8597000000E780A019AA89130AE043C1
:10323000330A3A419307304363C74707AD472285B6
:1032400063D337039307A00263C937059305B00220
:10325000938759FFB3853541B355B400B314F900D2
:10326000CD8C3315F4009395C400F2406244137A78
:10327000FA7F520AB181B3E745012A87D244424915
:10328000B249224A3A85BE850561828097000000D6
:10329000E78000139309050251BF938559FDB314CC
:1032A000B4000145C9B79307604363D94703138648
:1032B00089032285CA8597000000E780C00DC98D6B
:1032C0002146B334B0002285CA85330636419700C3
:1032D0000000E780A00933E4A4002E89A1472285DD
:1032E00063D437039307700263C6370793058002E0
:1032F000938789FFB38535413319F900B355B4007D
:1033000033E925013315F400B70780FFFD17B375C6
:10331000F9009377750081CF9377F50011476388A3
:10332000E7009307450033B5A700AA953E8593971C
:10333000850063DA0700B70780FFFD17130AF04323
:10334000FD8D330A3A410D819397D5015D8D93D45C
:10335000350011BF138989FD3319240101456DB76B
:1033600081440145014A01B701CE93070002918FC4
:103370006349F000130506FE014733D5A500BA8561
:10338000828033D7C5003355C500B395F5004D8D08
:10339000FDB701CE93070002918F6349F0009305BA
:1033A00006FE0147B315B5003A8582803317C50084
:1033B000B395C5003355F500C98DFDB7C167637678
:1033C000F5029307F00FB3B7A7008E0713070002AB
:1033D0001D8FB357F50017D5FFFF1305A5F8AA9762
:1033E00003C507003305A740828037070001C147A6
:1033F000E36EE5FCE147D9BFAA8581460146014558
:1034000017230000670003224111814522C406C62C
:103410002A8497200000E780002897D7FF1793871A
:10342000675B88435C5D91C38297228597F0FFFFBD
:10343000E780E089411122C497A70000938707978E
:1034400017A40000130484961D8C06C626C20984A6
:1034500011C893142400F114BE949C407D14F114FF
:10346000829765FCB240224492444101828041111E
:1034700022C44AC017A400001304E49217A9000054
:10348000130969923309894006C626C21359294097
:103490006309090081441C40850411048297E31CE0
:1034A00099FE17A400001304249017A90000130923
:1034B000E98F330989401359294063090900814480
:1034C0001C40850411048297E31C99FEB2402244FB
:1034D00092440249410182803D432A876373C302BB
:1034E0009377F700BDEFADE5937606FF3D8ABA9678
:1034F0000CC34CC30CC74CC74107E36BD7FE11E2AA
:103500008280B306C3408A069702000096966780C1
:10351000A6002307B700A306B7002306B700A3053C
:10352000B7002305B700A304B7002304B700A30323
:10353000B7002303B700A302B7002302B700A3011B
:10354000B7002301B700A300B7002300B7008280B3
:1035500093F5F50F93968500D58D93960501D58D3E
:1035600061B7939627009702000096968682E780BF
:1035700086FA9680C1171D8F3E96E374C3F8A5B7EF
:103580003571130EC1083ECB37030080C177AE8E74
:103590001343F3FF36C7938787202C00F28686DE1D
:1035A0003ECA3AC942CD46CF76C476CC1ACE1AC8A6
:1035B00072C297000000E7806016A24723800700D0
:1035C000F6500D618280AA8E17D5FF171305053EB0
:1035D00035710841130E81083ECB37030080C17757
:1035E0001343F3FF32C536C7938787202E86F286B2
:1035F0002C0086DE3ECA3AC942CD46CF76C476CC90
:103600001ACE1AC872C297000000E7802011A247A4
:1036100023800700F6500D618280937735002A875A
:10362000A1E3B7867F7F9386F6F7FD551107032642
:10363000C7FFB377D600B697D18FD58FE388B7FE93
:103640008346C7FFB307A7400346D7FF0345E7FFFD
:103650008DC60DC23335A0003E9579158280F1D21A
:1036600083470700050793763700F5FB098F13059D
:10367000F7FF82801385D7FF82801385C7FF828082
:10368000B3E7A5008D8BB9EB8D472A8763EAC704A2
:1036900029C603C805009306F6FF85052300070128
:1036A00093071700630108023A96BA9639A003C738
:1036B000F5FF8507A38FE7FE01CB85053388F6402C
:1036C000E397C7FE828036883387070163050804C5
:1036D0008507A38F07FEE39DE7FE82802A874DBF03
:1036E0003703FFFEB78880801303F3EF9388080841
:1036F0000D4E9441B387660013C8F6FFB3F7070178
:10370000B3F71701D9F711077116232ED7FE9105CC
:10371000E361CEFEB5BF828041712326111E2324B2
:10372000811E2324811D2E842EC4328C36C8232270
:10373000911E2320211F232E311D232C411D232ABE
:10374000511D2328611D2326711D2322911D232035
:10375000A11D232EB11B2AD297400000E780E04E26
:103760001C413E853ED897000000E78040EB835720
:10377000C4002AD482D982DB82DD82DF93F7070876
:1037800089C71C4899E36F10E009E28C03C70C005D
:103790007C02BED382D782D502CC02D602DC02DE06
:1037A00082C082C202C2C14B3E8D125A6305072CF1
:1037B00093065002E309D776668421A0638ED70A68
:1037C0004A848347140013091400EDFBB3049941A4
:1037D0006383042ABE562E5723209D01A696050713
:1037E00023229D00B6D7BAD59D46210D63CAE608AF
:1037F000924703471400A6973EC2630E07267D53E7
:1038000093041900034E1900A303010C014401495C
:10381000A549130BA0021A8C8504F28A1307A00590
:1038200093870AFE6363F71897D6FFFF938686C3D4
:103830008A07B6979C43B6978287528597400000C7
:10384000E780A0405C413E85BEC297000000E78053
:1038500000DDAAC0AA8A528597400000E780E03EBA
:103860001C453EDEE3960A7403CE040075B7136967
:10387000090203CE04004DB7B3049941C9D099BFE2
:10388000A245D011528597500000E78020780DE5C1
:10389000130DC110B1BFA245D01152859750000041
:1038A000E780C07663090562B24799C7B2451255F1
:1038B00097200000E78080F9A24783D7C70093F7DD
:1038C000070499C36F10D02D8320C11E0324811ECD
:1038D00012458324411E0329011E8329C11D032A89
:1038E000811D832A411D032B011D832BC11C032C29
:1038F000811C832C411C032D011C832DC11B7D6168
:10390000828097D7FFFF9387A7CF3ED69377090290
:103910006283E1C3C2479D07E19B03AC070083AD0F
:103920004700138787003AC89377190089C7B367A0
:10393000BC01E39207669379F9BF8947A303010CA1
:103940007D576300E36A3367BC0113F9F9F7E310AD
:103950000738E3110302639F074813FB1900930C18
:10396000011BE3110B60DA8963536B009A890347EB
:10397000710C02C602D002CE02CA6303074A85094F
:1039800045A1014493860AFD85049317240083CA48
:10399000F4FFA29786073384F60093860AFDE3F5C9
:1039A000D9FE93870AFEE371F7E863860A0C2306C3
:1039B0005115A303010C8549054B930CC114A1A912
:1039C00097D7FFFF938787903ED69377090262834C
:1039D000B1F3424793770901032C070011073AC856
:1039E000E39E075893770904E3860758420C135C5B
:1039F0000C01814D15BF03CE04001369490029BD98
:103A000093770902628363900770C24613770901B6
:103A10009387460003AC0600631607381377090442
:103A200019E36F10E026420C135C0C01814D3EC877
:103A3000EDA5C2469377090213874600E393075426
:103A40009377090199C36F10C0169377090499C33E
:103A50006F10C03013790920631409006F106015CE
:103A6000C2473AC812479C43A68C2380E70003C78D
:103A70000C00E31F07D2BE57E38007E4224412552F
:103A8000D011A28597500000E78040588357C400AA
:103A90003DB503CE04009307C006E30EFE5613693E
:103AA00009019DBB03CE040093078006E30EFE547C
:103AB0001369090495B34247E17793C70783231439
:103AC000F10C930747003EC897D7FFFF938747B392
:103AD00062833ED6032C0700814D936929008947F4
:103AE000930A8007A1BD137789006283E31F074C07
:103AF000C247081962C69D07E19B8C43D043A107CA
:103B00003EC897900000E78020F14A573243BAD967
:103B10005A57BADB6A57BADD7A57BADF88191AC61C
:103B200097400000E780A00DAAC7094732436314FD
:103B3000E5006F10800205476314E5006F10001860
:103B4000130710066394EA006F10407B13071004FC
:103B50006394EA006F10004B93F7FAFD7D57BEC4E3
:103B60006314E3006F10E026130770046394E7000A
:103B70006F1030027E5BCACA136709104E5FDE5DAC
:103B8000EE5E63540B006F10806F82CE3A8902C6DE
:103B90002647930760046314F7006F10E032930721
:103BA00050046314F7006F104076130C010B9C094E
:103BB000F8019A861308C10D0946E28552851ACE8E
:103BC0007AD97ACC76DD76CA6EDB5ADF9730000080
:103BD000E7806012A64713077004AA8CD24E624F8A
:103BE00072436384E7006F10B01AD64713F71700CB
:103BF00019C36F1060797E47B30797413ECCBE472B
:103C0000130770043ECAA6476394E7006F10001FB5
:103C1000A647130760046394E7006F10E03CD247A7
:103C20009305100493F6FA0F1387F7FFA647BAC758
:103C300001466396B700BD0693F6F60F0546230AC4
:103C4000D10C9306B00263570700D247054793068D
:103C5000D0021D8FA30AD10CA54663C4E6006F10E5
:103C600030051308310E428629451303300619A08A
:103C70002E863687B367A7029305F6FF938707035F
:103C8000A30FF6FEB346A702E344E3FE1387060341
:103C90001377F70F9306E6FFA38FE5FE63E40601B3
:103CA0006F10500F9305610D19A003C7060085051D
:103CB0008506A38FE5FEE39A06FF1307510E9307CF
:103CC000610D118F3E97D409B307D7403EDCE24720
:103CD000E2560547338BD7006344F7006F10900519
:103CE000A2573E9BD6479349FBFF93D9F94113F95D
:103CF000F7BF13690910B3793B0102D002CE02CAA3
:103D0000F64799E36F10C0141307D002A303E10C28
:103D10000143850931A293770902628393690901FE
:103D200063920740C24791074247814D3EC8032C2A
:103D30000700854721B1C247A303010C628383AC0E
:103D40000700138C4700E3810C307D57E30BE366DB
:103D50001A86814566851AC897400000E780405D55
:103D60002AC6424319E16F106021B247338B974155
:103D70000347710C9349FBFF93D9F94162C802C60E
:103D800002D002CE02CAB3793B010143E31907BE58
:103D900041A8937709026283136909016395073685
:103DA000C24791074247814D3EC8032C0700B5A684
:103DB0001369890003CE040085B4937709026283F6
:103DC00093690901639D0736C247910742473EC880
:103DD000032C0700935DFC416E876344071EFD576B
:103DE000630BF336B367BC0113F9F9F76394073635
:103DF000E314037E0143014B930C011BADB6424714
:103E0000A303010C85491C4311073AC82306F1148A
:103E1000054B930CC11402C6014302D002CE02CA64
:103E2000937F290063830F008909937D49083E57DA
:103E300063960D0033083441634D00698346710C6D
:103E40008DC2AE561306710C2320CD000507054622
:103E500085062322CD00BAD7B6D51D46210D63496C
:103E6000D60863810F02AE56B0012320CD000907AA
:103E7000094685062322CD00BAD7B6D51D46210DA9
:103E80006344D670930600086389DD40330C6341B8
:103E90006341804D9376091063910632AE575A976D
:103EA00023209D01850723226D01BAD7BED59D46EB
:103EB000210D63C1F66013794900630609003309D7
:103EC000344163482005635334014E849247A297DE
:103ED0003EC2E312079CB24782D599C7B2455285CC
:103EE00097200000E7808096130DC110A68C41B684
:103EF000A245D01152859AC47EDA97500000E7801F
:103F0000E010E313059A3E57130DC1102643D25F0C
:103F100089BFAE5717CCFFFF130C8C6B63D32B05F7
:103F20001D4BA24A21A0411963DD2B0341078507E0
:103F300023208D0123227D01BAD7BED5210DE35464
:103F4000FBFED011D685528597500000E780000C0B
:103F5000E31C059441193E57AE57130DC110E3C73A
:103F60002BFD4A97850723208D0123222D01BAD7E7
:103F7000BED59D46E3D9F6F4A245D011528597509F
:103F80000000E780A008E31105923E572DBF93770C
:103F9000090262836394071AC247137709019107E4
:103FA00019C36F10805E13770904E30C074E424774
:103FB0003EC8CA89031C0700935DFC416E87E3502D
:103FC00007E2330C8041B3378001B30DB041B38DAC
:103FD000FD409307D002A303F10C7D578547E314FE
:103FE000E39605476389E7160947638CE718141BB6
:103FF00011A0E6869397DD0113777C00135C3C00EB
:104000001307070333EC870193DD3D00A38FE6FE22
:10401000B367BC01938CF6FFE9FF13F61900630840
:104020000618130600036304C718F9161C1BA38F98
:10403000CCFE338BD7404E89B68C35B29307B00295
:10404000A303F10C03CE04006FF00FFDC24703CEB3
:104050000400804391073EC8635004FC3304804051
:10406000136949006FF04FFB1369090803CE040080
:104070006FF08FFA83CA04009387140063946A0177
:104080006F10004F93860AFDBE84014C63EAD9F895
:10409000850493172C0083CAF4FFE2978607338CBC
:1040A000D70093860AFDE3F5D9FE6FF06FF7136929
:1040B000190003CE04006FF02FF68347710C03CE76
:1040C0000400639B07F493070002A303F10C6FF055
:1040D000AFF4937709026283A9E7C2461377090117
:1040E0009387460003AC060019C36F10004C13778A
:1040F0000904E3030738420C3EC8135C0C01814DF0
:10410000CA89854725B8C2479D07E19B03AC0700D4
:1041100083AD4700138787003AC89379F9BF814779
:1041200031B8CA89C2479D07E19B1387870003AC5A
:10413000070083AD47003AC8854709B0CA89C2471E
:104140009D07E19BD8439386870036C803AC0700E0
:10415000BA8D61B1CA89E3910D14A547E3EE8713C7
:10416000130C0C03A307811B4E89054B930CF11A0A
:104170006FF06FFF0547E381E7460947CA89E39877
:10418000E7E6B256930C011B9377FC00B69783C702
:1041900007001397CD01135C4C00FD1C336C8701A5
:1041A00093DD4D002380FC00B367BC01F1FF1C1BB5
:1041B000338B97414E896FF00FFB9306500663D9FE
:1041C0005623CE560C11081936D9DE563ADA02D1EA
:1041D00036DBEE5602D302D536DDFE5602D736DF89
:1041E00097700000E780009F5257631E053AAE5754
:1041F00097C6FFFF9386864205072320DD008507CB
:1042000085462322DD00BAD7BED51D47210DE347E1
:10421000F706BE47624763C7E7009377190099E343
:104220003E5751B9C257A2563E572320FD00AE5704
:1042300036972322DD008507BAD7BED59D46210DCE
:1042400063C7F65AE247138BF7FFE35660C7AE57D2
:10425000E3DC6B0D1D4CA24A21A0411BE3D66B0D84
:104260004107850797C6FFFF938686372320DD0029
:1042700023227D01BAD7BED5210DE350FCFED0111B
:10428000D685528597500000E78040D8631E05E030
:104290003E57AE57130DC110C9B7330C3441E35725
:1042A00080BFAE5663D58B0726DAEA87E284668D37
:1042B0004E8CDA8CA2899D4D22441A8B21A0C11408
:1042C00063DF9B024107850617C6FFFF13064631D1
:1042D00090C323A27701BAD7B6D5A107E3D1DDFEFB
:1042E000D011A285528597500000E78020D2631D2F
:1042F00005DAC1143E57AE567C02E3C59BFC4E84E2
:10430000E289268CD2545A83668BEA8C3E8D629762
:10431000850697C7FFFF9387A72C2320FD00232244
:104320008D01BAD7B6D51D46210DE351D6B6A245AB
:10433000D01152851ADA97500000E78020CD63151E
:1043400005D652533E57130DC110330C6341E3534E
:1043500080B5AE5663D18B0726DA9D4DE2845A8C28
:104360004E8BA289224421A0C11463D19B04410732
:10437000850697C7FFFF9387A7262320FD002322EA
:104380007D01BAD7B6D5210DE3D0DDFED011A285CF
:10439000528597500000E78060C7631705D0C114AD
:1043A0003E57AE56130DC110E3C39BFC4E84DA8911
:1043B000628B268CD2546297850697C7FFFF93873E
:1043C00027222320FD0023228D01BAD7B6D51D4612
:1043D000210DE351D6ACA245D01152859750000073
:1043E000E780C0C2631205CC3E57130DC1105DB407
:1043F0002E56E247854623209D010507130B160024
:10440000130C8D0063D9F62A85462322DD00BAD726
:10441000DAD59D4663CC6631A257C256050B3E974E
:104420002320DC002322FC00BAD7DAD59D46210CDC
:1044300063CC6631CE56E24713081B0036D9DE56F0
:104440000C11081936DBEE563AD0C28A36DDFE561C
:1044500042CE02D136DF9386F7FF36CA02D302D5A9
:1044600002D797600000E780E076130D8C00D246FB
:10447000724802576300052693871C003697232055
:10448000FC002322DC00BAD7D6D59D4763C0575322
:1044900093070C01930A2B006A8C3E8DE256DC09CF
:1044A0002320FC0036972322DC00BAD7D6D59D47BF
:1044B000E3D357A1A245D011528597500000E78061
:1044C000E0B4631305BE3E57130DC110EDB2CA89A7
:1044D00009BEAE5617CCFFFF130C8C0F63D90B0728
:1044E000A6C4CAC6EA876289668D4E8CDA8CA28918
:1044F0009D427EDAA2441A8B428421A0411463DDDE
:104500008B024107850623A0270123A27701BAD792
:10451000B6D5A107E3D4D2FED011A6855285975017
:104520000000E780A0AE631105B841143E57AE56B7
:104530007C029D42E3C78BFC2288D25F4E84A64456
:10454000E2894A8C36495A83668BEA8C3E8D4297C3
:10455000850623208D0123220D01BAD7B6D51D462D
:10456000210DE35DD68CA245D01152859AC47EDA26
:1045700097500000E78080A9631805B23E57130DDD
:10458000C1102643D25F5DB8A245D01152851ADA18
:1045900097500000E78080A7631805B03E57130DC1
:1045A000C1105253C5B03E466352C044E247D246A2
:1045B0003E8B63CAF622635F6001AE565A97232092
:1045C0009D01850623226D01BAD7B6D51D46210D62
:1045D000634BD6749346FBFFD247FD86337BDB00EB
:1045E000338B6741634E6027D24793760940B38A85
:1045F000FC00639D062A3E4BE2476346FB00937630
:10460000190063820674C256A2571D462320DD009E
:10461000AE563E972322FD008506BAD7B6D5210DAA
:10462000E34ED612E246B387DC00338B6641B38794
:1046300057415A8C63D367013E8C635F8001AE574C
:10464000629723205D01850723228D01BAD7BED54D
:104650009D46210DE3C2F6149347FCFFFD87337C92
:10466000FC00330B8B41E3586085AE5763DE6B4B28
:104670001D4CA24A21A0411B63D86B4B4107850703
:1046800097C6FFFF9386C6F52320DD0023227D0118
:10469000BAD7BED5210DE350FCFED011D685528588
:1046A00097500000E7808096631005A03E57AE57F4
:1046B000130DC110C9B793751900E39705D42322D0
:1046C000DD00BAD7DAD59D4763C2672F930A26006B
:1046D000410DE9B3E354D0DCE3D6DB669D4A368D69
:1046E000A24C428B29A0411D63D0AB57050B41075B
:1046F00097C7FFFF9387C7EE2320FC0023227C018E
:10470000BAD7DAD5210CE3D06AFFD011E6855285FD
:1047100097500000E780808F631805983E572E5B06
:10472000130CC110C9B766896FF06F8DA245D01107
:10473000528597500000E780608D631705963E57BD
:104740002E5B130CC110C9B9A245D01152859750E8
:104750000000E780A08B631905943E572E5B130C75
:10476000C110C9B993070003A307F11A930CF11AFA
:104770006FF06F9F93770920639F0760814D6FF003
:10478000AF9A12469C423AC89356F64190C3D4C39E
:10479000A68C6FF0CFAD93070003136929002304A3
:1047A000F10CA304510D9379F9BF89476FF00F996C
:1047B000F25703CE04006381078683C70700638D29
:1047C0000784136909406FF02F85C247984391070A
:1047D0003EC80C43504314475847AED9B2DBB6DD50
:1047E000BADF6FF0AFB3368BE34960DDE5B3A245C6
:1047F000D011528597500000E78040816316058AEA
:104800003E57130DC1103DBC03CE1400136909209F
:1048100085046FF06F8003CE1400136909028504CC
:104820006FE09FFF12559305000497300000E7806A
:104830000043A24788C388CBE3020556224793076B
:1048400000045CCB6FE07FF499471A8B63EB674EF3
:10485000DA8962C897CCFFFF938CCCDB6FF0AFDBBB
:10486000AE5663DF6B479D4A224C21A0411B63D9A2
:104870006B474107850697C7FFFF938767D62320BD
:10488000FD0023227D01BAD7B6D5210DE3D0DAFE93
:10489000D011E285528597400000E78020776315AC
:1048A00005803E57AE56130DC110C9B7E247724C92
:1048B00026CA4ADAA2C482544ECE66D0B38DFC001A
:1048C0001D4B06497254EA86A249964C63050C06B4
:1048D000ADE47D147D1CAE574A9723A09601850751
:1048E00023A22601BAD7BED5A1066344FB0E034618
:1048F0000400B3855D41328D63D3C5002E8D6350B6
:10490000A0032E566A9723A05601050623A2A601EE
:10491000BAD7B2D56344CB2203460400A10693451F
:10492000FDFFFD85B377BD00330DF6406349A0015F
:10493000B29AE31F0CF86384044AFD1469BF2E5633
:1049400063C6AB0191A0411D63D0AB0541070506CD
:1049500097C7FFFF9387C7C89CC223A27601BAD727
:10496000B2D5A106E351CBFED011CE85528597403A
:104970000000E780A06919C16FE01FF3411D3E5799
:104980002E567402E3C4ABFD6A97050697C7FFFF76
:10499000938707C59CC223A2A601BAD7B2D56341AB
:1049A000CB4C03460400A106B29A61B7A245D011D0
:1049B000528597400000E780606519C16FE0DFEE27
:1049C0002E563E57130D4111930A1600130CC110B9
:1049D000F1B4D011CE85528597400000E780006386
:1049E00019C16FE07FEC3E57740211B7AE5697C500
:1049F000FFFF9385A5C22320BD00050785458506D9
:104A00002322BD00BAD7B6D59D45210D63C9D50473
:104A10006311061CE24793761900DD8E638D06C88C
:104A2000C256A2571D462320DD00AE563E972322D4
:104A3000FD008506BAD7B6D593088D006349D636F2
:104A4000E247850623A098013E9723A2F800BAD733
:104A5000B6D59D47138D880063DFD7C4A1BCA2459E
:104A6000D011528597400000E780405A19C16FE08D
:104A7000BFE33E463E57130DC11059BFA245D011AA
:104A8000528597400000E780605819C16FE0DFE170
:104A9000130DC1106FF0EFF7930C011B814713F951
:104AA000094026C64ECA130BF00FE6891ACED28CE7
:104AB000F2546E8AEA8D228D3E8429A829468146C9
:104AC0006285D28597600000E780C0A5630A0A3A34
:104AD0002A8C2E8A294681466285D28597600000FD
:104AE000E78020DA13050503A38FA9FE0504FD194D
:104AF000E30609FC83C60400E312D4FCE30064FD72
:104B000063140A38A54763E18739668ACE8CD24997
:104B10001C1B22CC26DE6A847243B2446E8D338B1A
:104B200097414E896FE03FE497C6FFFF938646ABFF
:104B30005A9785072320DD006FF0EFB6D011CE85A0
:104B4000528597400000E780604C19C16FE0DFD5C7
:104B5000034604003E577402D9B3CE570C1108190E
:104B60003ED9DE5702D102D33EDBEE5702D502D743
:104B70003EDDFE573EDF97600000E780401F634E3A
:104B800005320347710C9306700497CCFFFF938C9A
:104B90002CA663C5561902C602D002CE02CA1379EA
:104BA000F9F78D490D4B014319C36FE05FDD6FF0DD
:104BB0002FA7C247A68C9C433AC8124798C36FE000
:104BC0001FEB668597F0FFFFE78060A52A8B6FF0EB
:104BD0002F9AC256A2579D452320DD00AE563E9720
:104BE0002322FD008506BAD7B6D593088D0063C091
:104BF000D51CE35706E4C155330BC0406356B67469
:104C00001D4CA24A21A0411B63D06B75410785064C
:104C100097C7FFFF9387C79C23A0F80023A27801C2
:104C2000BAD7B6D5A108E350DCFED011D68552859F
:104C300097400000E780803D19C16FE0FFC63E57F6
:104C4000AE569308C110C1B7EA86930A1B009307BA
:104C50008C00369717C6FFFF130686982322DC00C8
:104C60002320CC00BAD7D6D59D46E3C156D5850AB8
:104C7000138D87003E8C1DB0137709206307071042
:104C80003EC8137CFC0F814DCA8985476FE01FCB5E
:104C9000137709207DC7137CFC0F814D3EC86FF050
:104CA000CFC71377092061C74247CA893EC8030CA2
:104CB0000700935DFC416E876FF02F92FE5763C132
:104CC000070E0347710C9306700497CCFFFF938C7B
:104CD000AC92E3D256ED97CCFFFF938C2C9265BD3E
:104CE0005A97850697C7FFFF9387878F2320FD007C
:104CF00023226D01BAD7B6D51D46210DE356D68EB7
:104D0000A245D011528597400000E780203019C19C
:104D10006FE09FB93E57130DC110F9B097CCFFFF5C
:104D2000938C4C8D8DBDA245D011528597400000CB
:104D3000E780C02D19C16FE03FB73E57130DC1107A
:104D400051B8194B31B6E246B387DC00338B66416C
:104D5000338C5741E3528B915A8CFDB8C2473AC805
:104D600012479C43A68C2390E7006FE05FD0424738
:104D7000CA893EC8032C0700935DFC416E876FF023
:104D8000CF85814D3EC86FF04FB93EC8814DCA896D
:104D900085476FE0BFBA137CFC0F814D6FE0DFB831
:104DA0009307D002A303F10C1307D00229BFA24539
:104DB000D011528597400000E780402519C16FE06F
:104DC000BFAE3E463E57AE569308C110E35A06C6E4
:104DD0001DB519436FE01FDACA896FF06FB8825CA6
:104DE000E24722DE368DB386FC00D2445259264477
:104DF000F249E3F25681B68A6FF0EFFFD24775575A
:104E000063C4E7006358F300F91A93F7FAFDBEC4D0
:104E10006FE0FFE06247D24763C3E71A56473E8B15
:104E2000058B01C72257338BE700D64713F707409E
:104E300001C7D247634AF0569349FBFF93D9F94122
:104E4000B3793B01930A700602D002CE6FE05FEBAC
:104E50000347710C014319C36FE07FB26FE05FFC41
:104E6000D011CE85528597400000E780201A19C1E5
:104E70006FE09FA3034604003E577402B29A55BCEC
:104E8000A547E3E787C551B1864796450144B389F5
:104E9000F9403E864E8597E0FFFFE780A07E03C87D
:104EA000140029468146333800016285D285C294B8
:104EB00097500000E780006721B99307D002A30351
:104EC000F10C1307D002C1B1130C010B9A86F80143
:104ED0001308C10D9C090D46E28552851ACE7AD978
:104EE0007ACC76DD76CA6EDB5ADF97200000E78049
:104EF00080E08346050013070003AA8CD24E624F60
:104F00007243638DE65E1C11BECC3E47B309670059
:104F1000E699E64562851ACA7AD96EDB76DD5ADFF4
:104F200002D102D302D502D797600000E78080CA81
:104F30004E87524319E16FE03FCC7E4713060003D2
:104F4000636437016FE05FCB93071700BECF230088
:104F5000C7007E47E36A37FF6FE01FCAA245D01142
:104F6000528597400000E780600A19C16FE0DF9327
:104F70003E4B3E57130DC1106FF0CFEA0347710C43
:104F800062C802D002CE02CA9A891A8B014319C3A1
:104F90006FE0FF9E6FE0DFE8A245D0115285974099
:104FA0000000E780A00619C16FE01F903E4BE2476A
:104FB0003E57130DC110338B67416FF0EFE9E247A5
:104FC0002257930A7006338BE700D247635EF05096
:104FD000D64713F70740631B073C9349FBFF93D960
:104FE000F941B3793B018DB5D64713F71700D24786
:104FF00033676700635BF0546311074E524B930AAB
:105000006006F9B7930700032304F10C93078005AA
:10501000A304F10C9367290013073006BECA02C629
:10502000930CC114634767267E5B93F7FAFDBEC4F9
:1050300082CE136929104E5FDE5DEE5E63430B2462
:1050400013071006638FEA3A130710046384EA001B
:105050006FE01FB4130C010B62851ADA7AD976DD82
:105060005ADF6EDB97800000E780E0B0F0019740E8
:105070000000E78000EA2E86AA85628597800000FE
:10508000E78080994A571C099309010A3AC95A577F
:105090001001BE853ACB6A574E853E8B3ACD7A5782
:1050A000B2C6CECC3ACF3707FC3F3AC702C102C3E3
:1050B00002C597600000E780C0DA0A579A562A585E
:1050C000BA5ECE8562853AD93AD036DB36CE42DD3D
:1050D00042CC76DF76CA02D102D302D502D79760DE
:1050E0000000E78020AFD24E6248F246025752538A
:1050F00019E10546B2C797B7FFFF9387271D3EDA30
:10510000930DF3FF66CAA6D0D6D2A2D6EADAD2DCD5
:10511000E6DECAD4EE8C9AD83A8DB68D428AF68AEB
:105120006644DA8405A8A285628532D07ACE7ECC28
:105130007EDB7ADD32DF4AD902D102D302D502D733
:1051400097600000E78000A9FD1CE24F724F0256F5
:1051500041CD5ACAB70703402686A28562853ECF55
:105160006AD16ED352D556D702C902CB02CD976011
:105170000000E78000CF628597700000E780806BB9
:10518000AA85AA8962857A5BCA5A5A5A6A5997705F
:105190000000E780E0784A573646A6853AC15A575C
:1051A00022855ACF3AC36A5756C952CB3AC57A5765
:1051B0004ACD3AC797700000E7806080D2570A59FD
:1051C0009A5F33873701D247034707002A5F3A5671
:1051D000138B1700A30FEBFEE6C8FD574A8DFE8D1B
:1051E0007A8AB28AE391FCF44653E645CA82B70D47
:1051F000FE3F62851ACC865416D996D07EDBFEC659
:105200007ADD7AD032DF32CE02D102D302D56ED728
:1052100097600000E78060A6965A3654565D665A3D
:10522000F65C265962436344A0088652B64F025F7B
:105230007246E645628516D97EDB7ADD32DF02D121
:1052400002D302D56ED797600000E780A098624332
:1052500009E593F91900639C0904C6479306000306
:10526000138717005A9763C70700050BA30FDBFED0
:10527000E31D67FFB3079B413ECC6FE05F9802C61A
:105280003A89370700809307D002334B6701BECEBF
:1052900045BB9305130052851AC697300000E7807E
:1052A000009CAA8C3243630505302AC6B5BBD247A1
:1052B0005A87BECFD2578346FBFF03C6F700631E53
:1052C000D60093050003A30FB7FE7E479307F7FFB1
:1052D000BECF8346F7FFE308D6FE1386160093057C
:1052E00090031376F60F6385B600A30FC7FE59B778
:1052F000D25703C6A700A30FC7FEADBF9307000395
:105300002304F10C9307800721B393091300130CB6
:10531000010B1308C10D9C09F801CE860946E285F0
:1053200052851ACE7AD97ACC76DD76CA6EDB5ADF10
:1053300097200000E780209CD24E624F7243AA8CD7
:105340001C11E699BECCF1B65A97850697B7FFFFB8
:105350009387072923A0F80023A26801BAD7B6D5FE
:105360001D46A108635ED6ECA245D0115285974038
:105370000000E780A0C919C16FE00FD33E57AE56B9
:105380009308C1106FF0CFEB1C11B3896C00BECC39
:1053900049B6630403006FE0EFFD05436FE08FFD46
:1053A000FD573EC26FE04FD2930A7006F255D247C6
:1053B00002D003C7050002CE1306F00F6302C70236
:1053C0006350F70283C61500998F99C67247850509
:1053D00005073ACE3687DDB78256850636D0F9BF47
:1053E0003ECA0257F2472EDE3E9786473307F70242
:1053F0003A9B9349FBFF93D9F941B3793B016FE0A5
:105400003F90130C010B62851ADA7AD976DD5ADFE8
:105410006EDB97700000E7800076F0019740000097
:10542000E78020AF2E86AA85628597700000E7800E
:10543000A05E4A571C099309010A3AC95A5710013C
:10544000BE853ACB6A574E853E8B3ACD7A57B2C667
:10545000CECC3ACF3707FC3F3AC702C102C302C5E0
:1054600097600000E780E09F0A579A562A58BA5E74
:10547000CE8562853AD93AD036DB36CE42DD42CC93
:1054800076DF76CA02D102D302D502D79750000048
:10549000E7804074D24E6248F2460257525319E1F7
:1054A0000546B2C797B7FFFF938787153EDA89B9DC
:1054B0009306610D19E693060003230BD10C9306A6
:1054C000710D1C1B3386F640130707039307D60D97
:1054D0002380E6003EDC6FE08FFF2257930A6006D0
:1054E000338BE7001A9BEDB4330BFB40050B93495C
:1054F000FBFF93D9F941B3793B01B9B20C11628535
:105500001ACE7AD97ACC76DD76CAAECC6EDB5ADF8B
:1055100002D102D302D502D797500000E780806BFA
:10552000D24E624F7243E302059E05473307674040
:10553000BAC7E9BAD64713F7170019E36FE08FFA35
:105540006FE00FFAEA876FF0CFF011E78549930A11
:105550006006054BD5B8A257930A6006138B170057
:105560001A9B9349FBFF93D9F941B3793B01E9B801
:105570004247032C0700110763530C007D5C03CEE8
:1055800014003AC8BE846FE02FA9CA896FE01F8457
:105590009A897DB389473EDC6FE06FF31257B147BC
:1055A0001CC3FD573EC26FE02FB2CA896FE0CFF730
:1055B000A24683D7C60013E70704BA872396E600FE
:1055C0006FE0EFAF97B7FF179387473EB2862E86FF
:1055D000AA8588431703000067008300AE87411146
:1055E00022C4B2852A8436863E8506C697C7FF1731
:1055F00023A207C297500000E780A0EEFD57630684
:10560000F500B24022444101828097C7FF1793877B
:1056100067C09C43FDD71CC0B24022444101828038
:1056200097B7FF179387073B984383278714A1C336
:10563000D8437D48634DE804131827001DC1338308
:1056400007012324C30883A8871805463316E600FC
:10565000B3E8C80023A417192324D3108946630D87
:10566000D5000507D8C3C2978CC701458280930730
:10567000C7142324F7146DBF83A6C7180507D8C322
:10568000558E23A6C718C2978CC7014582807D55C9
:105690008280797197B7FF179387C73362C403ACD1
:1056A00007004ECE52CC56CA5AC806D622D426D2AD
:1056B0004AD05EC6AA8A2E8B054AFD5903298C144E
:1056C00063040902832449001384F4FF634E040039
:1056D0008A04CA9463060B0283A74410638267039B
:1056E0007D14F114E31834FFB2502254925402593D
:1056F000F249624AD24A424BB24B224C4561828007
:1057000083274900D440FD176380870423A2040047
:10571000E1DA8327891833178A00832B4900F98F30
:1057200099EB829683274900E39A77F983278C14B3
:10573000E38827FB61B78327C91883A544087D8FB9
:1057400019E756858296F9BF23228900D1B72E85A5
:105750008296C9BF011122CC26CA4AC84EC62E84E1
:1057600006CE97B9FF17938929E32A89973000005D
:10577000E78080C683A6890005679307F7FEC442C9
:1057800033848740F198269431807D143204634D30
:10579000E40081454A8597300000E780A07383A725
:1057A0008900A697630FF5004A8597300000E780CF
:1057B000C0C2F2406244D2444249B2490145056147
:1057C0008280B30580404A8597300000E780807072
:1057D000FD576300F50497C7FF179387A7A09C4365
:1057E00003A78900818C93E41400338487404A85A1
:1057F00044C397C7FF1723A7879E97300000E78011
:10580000C0BDF2406244D2444249B24905450561F7
:10581000828081454A8597300000E780A06B03A70E
:105820008900BD46B307E540E3D0F6F897B6FF1709
:1058300093860618944293E717005CC3158D97C7AB
:10584000FF1723A1A79A8DB7EDC9411122C426C223
:105850002E84AA8406C697300000E780E0B783252F
:10586000C4FF130784FF17B5FF171305E5D293F79D
:10587000E5FF3306F700544203288500F19A630BD5
:10588000C81254C285893308D600C9E1032384FFB6
:105890008325480097B8FF17938888D0330767405F
:1058A000032887009A9785896309180F0323C70087
:1058B00023266800232403016381051693E617005D
:1058C00054C31CC29306F01F63E3F6088D839386CE
:1058D00017008E064C413695104193D627408547D8
:1058E000B397D700CD8F930685FF54C710C797B6DF
:1058F000FF1723A5F6CA18C158C62244B240268510
:105900009244410117330000670023AD832548000E
:1059100085898DE5B69797B8FF17938868C81446B0
:1059200013E81700B305F700638116115046D0C67F
:1059300014C6232207019CC171B7828093E6170029
:10594000232ED4FE1CC29306F01FE3F1F6F893D683
:10595000970011466364D60A93D667009385960331
:10596000138686038E05AA959441E115638FD50CA5
:10597000D042719A63F5C7009446E39BD5FECC46AE
:105980004CC714C7224498C5B24026859244D8C655
:10599000410117330000670043A4639005100C46D3
:1059A0005046B69793E61700D0C50CC654C33E9731
:1059B0001CC3A1B78589B69789E9832584FF0D8F1C
:1059C00054471047AE9754C690C697B6FF179386B4
:1059D00066FE13E61700944250C317B6FF17232143
:1059E000E6BCE3ECD7F097B7FF17938767FF8C43CC
:1059F000268597000000E78020D601B751466370E6
:105A0000D60213064005636DD60493D6C70093856E
:105A1000F6061386E6068E05B9B7B69709B79385DD
:105A2000C6051386B6058E053DBF97B6FF1723AF93
:105A3000E6B697B6FF1723A9E6B623261701232457
:105A40001701232207019CC14DBD484185470986A6
:105A50003396C700498E97B7FF1723A1C7B40DB778
:105A600013064015636AD60093D6F7009385860720
:105A7000138676078E05C5BD13064055636AD600AA
:105A800093D627019385D6071386C6078E05E1BDF9
:105A90009305803F1306E007F9B593E6170054C35A
:105AA0001CC2A1BD9306450081476905617809A81C
:105AB00086072390E600C2078906C1836307D502E3
:105AC00003D706001376170019C293E71700058362
:105AD00013F62700B365070161DE86072390B60041
:105AE000C2078906C183E31DD5FC82809306850128
:105AF0000147090509A806072390F6004207F91691
